:0600000040C0FECFFDCF61
:10000600FCCFFBCFFACFF9CFF8CFF7CFF6CFF5CFAE
:10001600F4CFF3CFF2CFF1CFF0CFEFCFEECFEDCFDE
:100026006400C80090012003F8FFFCFFFEFFFFFFFD
:100036001027E80364000A00010000100001100008
:10004600010048656C6C6F2121210054696D653A89
:10005600202532643A253032643A253032640A006B
:10006600446174653A202532642F253032642F2589
:10007600640080C00200A60178000000F894EE2714
:10008600ECBBF1E0FBBFEBBFE5BFF8E1F1BDE1BDC5
:100096008DE0A2E0BB27ED938A95E9F780E094E036
:1000A600A0E6ED930197E9F7EAE7F0E085919591EF
:1000B600009761F0A591B59105901590BF01F001EB
:1000C60005900D920197E1F7FB01F0CFEFE5EDBF4B
:1000D600E4E0EEBFC0E6D1E058C0E4EEE6BFE6B726
:1000E600E078E9F30895E4E9E6BF0895AA93E88184
:1000F600E3B9E4E8E6BFE6B7E078E9F361C1AA93BD
:100106001A93A981A13011F4E4EC01C0E4E8E6BF3A
:10011600E6B7E078E9F313B1E12F1881E3C066D2C0
:10012600A0E0E4DFA88166D2AA81E0DFDCDF1DC1A2
:100136005DD2A4E0DBDFAA815DD2A881D7DFD3DF61
:1001460014C15BD2A0E05ED2A881B98161D2AC8134
:10015600BD8108C052D2A4E055D2AC81BD8158D22F
:10016600A881B981EC93BFDF26960895AA931A93C6
:10017600B4DFA0ED3FD2B1DFA1EDB8DFA0E0BFDF75
:100186001E2FB1DFE12F1881ADC0E0E0E8BBE7BB71
:10019600E5BBE4BBE2BBE1BBE3BFE2BFEFBDEEBD47
:1001A600EDBDECBDE7BDE6BDEBBDEABDE9BDE8BD15
:1001B600E2BDE5BDE4BDE3BDE5BFE9BFEAB9E0E800
:1001C600E8B9E0E0E0BFE6B9EDB9E6BFE0EFEA93F3
:1001D600A2E8B1E0CED2AE2EA0E1C9D0789420D26A
:1001E600EFE77E225A924A92A72D99DFAFE3BEDF50
:1001F600E53559F0E0E0EA93EA93A0E090DFE2E12A
:10020600EA93E2E0EA93A1E193DFA8E4B0E09CD0B0
:1002160007D2E6E0F0E00FD2E9E0F0E00CD2A8E089
:10022600B0E098DFE1E7F1E006D2E1E5F0E003D2E5
:10023600E52D04D2E42D02D2E72D00D28CE0ABD11D
:10024600609652D0A1E7B1E070D0E1E7F1E0F3D1DA
:10025600E6E6F0E0F0D1E62DF1D1E92DEFD1E82D7B
:10026600F0E0E053F84FFCD208D38CE094D16096CE
:10027600A1E7B1E05AD0E8E0EA93A0E028D0A9E6E9
:10028600B1E053D0A8E8B3E11FD2C2CFFFCFAA9303
:10029600E2B3EF70AE2FE881E07FEA2BE2BB85E0A8
:1002A6008A95F1F7929A8DE08A95F1F792988DE00A
:1002B6008A95F1F785C0AA93A881E9DFE881E295DE
:1002C600E883A881E4DF85E88A95F1F779C0AA93E7
:1002D600E881F0E0EA55FE4FE081A981AE0FEBDF41
:1002E600D980C88022960895A2E0ADD1ACE0E3DFC4
:1002F600A1E0A9D1E0E0CE2EDE2E0895AA93A88132
:10030600AA3021F0E091AA01DE1648F0E0E0EA9377
:10031600C394AC2DDCDFA881AA3009F451C0D39474
:10032600909AA881C8DF90984BC0BA93AA931A9363
:10033600A981BA81ED91A983BA831E2FE03019F005
:10034600A12FDCDFF5CF10C0BA93AA931A93E981E7
:10035600FA813196E983FA833197E4911E2FE030D2
:1003660019F0A12FCBDFF3CF188123960895AA9316
:10037600E1B3E06FE1BB8A9A889A899A929890983D
:100386009198E881E093AA01E058E093A801E881FA
:10039600E054E093A901A4E1B0E096D158D157D139
:1003A60056D1A0E274DF88EC90E00197F1F7A8E25D
:1003B60082DFA4E080DFA5E87EDFA6E07CDF94DFB5
:1003C60021960895BA93AA9361D248D112964DD236
:1003D6003097F9F043D1149648D28F01309761F0E7
:1003E6000230E0E01E07A0F0F80131978F01AA81E4
:1003F600BB811496ED93FC9331D1129632D131978D
:10040600AC81A0832BD131D2FF2312F027D129D181
:1004160005C024D1EFEFFFEFED93FC933ED2259676
:100426000895BA93AA9324972DD210E0AA85BB8586
:10043600E0E0F0E0ED93FC93E889F9893196E88BEA
:10044600F98B15D109F4A1C0E12FE03031F4353232
:1004560011F411E001C010D197C0E13081F43532BA
:1004660011F40AD190C012E020E000E03B3211F412
:100476002BE28AC0303211F420E286C002C0E2309C
:1004860031F4303319F4006115E07EC003C0E53065
:1004960009F07AC0E32FE33639F4F5D0F7D0F3D07C
:1004A600A481AA93F7D06FC0E33769F4F9D0FAD0E4
:1004B600AE81BF81ED91AE83BF833E2FE03011F058
:1004C600DBD0F6CF60C0E03761F4EAD0EBD0EE8146
:1004D600FF813196EE83FF83CAD011F0CDD0F7CFDE
:1004E60052C0E43611F0E93611F4016002C0E53776
:1004F60019F4E6E3F0E009C0E83511F4026003C040
:10050600E83709F040C0E0E4F0E0EE83FF8300FF47
:100516000DC0C6D0CED0552322F4FA019DD1AF012D
:100526002DE2203011F02A93B5D002C0B9D0C1D047
:1005360030E3EE81FF819DD1E887F987EE81FF8167
:100546003296EE83FF83E885F9854E175F0730F014
:100556003F5FA885B9854A1B5B0BF5CF04FD06C036
:10056600313320F4A885B985119749F400613A33EF
:1005760028F001FF02C0395F01C0395D7DD0A88532
:10058600B9851297A8F610E057CFAA85BB856DD11D
:1005960080D162960895FF92F82E269775D18FD056
:1005A600309719F4EFEFFFEF1DC0DE01169650D11C
:1005B6008D0185D0EE83FF83E0E0E887E987DE01E1
:1005C6001A9646D152D137D01A930A93E5EEF1E046
:1005D60032D0DE011A9625DF9F01AE81BF81E0E0B1
:1005E600EC93F90158D12A96FF900895AA9375DDE8
:1005F600A0ED7CCD7BDDA98179CDBA93AA936DDD83
:10060600A0ED74CD73DD69DDA1ED70DDA1E077CDE0
:10061600EC93A1E074DDAA81BB81EC93A0E06FCDE1
:10062600E5E0F0E0FA93EA93E4E0F0E0FA93EA9387
:10063600A7E0B0E086CDFA93EA930895FF276627F0
:1006460077271BD1089537DEA3E0B0E03DC0A0E3D5
:100656001EDE88EC90E00197F1F70895AA81BB8130
:100666000895ED91FD913196FE93EE93089531979D
:10067600E4913E2FE03008953A93AB85BC85ED8535
:10068600FE8509950895EE85FF8508953497EE87D2
:10069600FF870895AB85BC85ED85FE850995089590
:1006A600F2DFF4CFAE85BF851496DFD0EE83FF83ED
:1006B6000895AE85BF8514964D915C910895DE012F
:1006C6001C96C6D0D2D00895109639F080ED97E0EA
:1006D6000197F1F7A8951197C9F70895EE27A898FD
:1006E600A09A80EC93E00197F1F7A09885E28A95AD
:1006F600F1F7989B08958BEC8A95F1F7989BE1E0CA
:100706008CE093E00197F1F70895A09A85E08A9529
:10071600F1F7A0988DE18A95F1F788949899089455
:10072600E79585ED8A95F1F70895E894A09A85E016
:100736008A95F1F770FDA09883E28A95F1F798996A
:1007460003C070FF03C0089570FF089588EC8A9572
:10075600F1F7A0988DE08A95F1F7689408957A2FBD
:1007660068E0EE27E2DF26F477956A95D9F7E395F8
:1007760008954F935F9311244427012C1124AEDF73
:10078600EE2301F1AF93A881EADFAF9151E0501556
:1007960098F4BBDFE7FD08C0B8DFE7FD06C03FD031
:1007A600892319F4152E01C0B0DF39D0892370E0F2
:1007B60009F071E0BADF1EC0A8DFE7FF0BC0A5DFB6
:1007C600E7FF05C0E42F5F914F9121960895689445
:1007D60037D0EFCF9ADFE7FF01C003C0501531F0E5
:1007E600152EE8942DD07727A0DF04C0689428D072
:1007F60071E09BDF5395513454F287DFEE1FEE1FF5
:10080600E1701896EC93189743951120D9F259E0A8
:10081600EC911996EC9318975A95D1F7AECFE52F30
:10082600EA956E2FE695E695E695FF27EA0FFB1FFC
:10083600808191E0677019F0990F6A95FCCF089551
:10084600EEDF1EF09095892301C0892B80830895E1
:100856000024AF0DB01D0895F195E195F04008957F
:100866006F2F660F660B762F0895ED91FC91119709
:1008760008950590F491E02D08957A936A93FA937A
:10088600EA9308955A934A933A932A931A930A93AA
:1008960008955D814C813B812A81198108810895E3
:00000001FF
