:1000000047C0FECFFDCFFCCFFBCFFACFF9CFF8CF63
:10001000F7CFF6CFF5CFF4CFF3CFF2CFF1CFF0CFCC
:10002000EFCFEECFEDCF6400C80090012003F8FFC2
:10003000FCFFFEFFFFFF48656C6C6F21212100541F
:10004000696D653A202532643A253032643A2530AC
:1000500032640A00446174653A202532642F2530E9
:1000600032642F25640020252E3166DF430080C0D6
:100070002D4E414E000001002D4E414E00494E468E
:100080000000020086016E0001008B017600000076
:10009000F894EE27ECBBF1E0FBBFEBBFE5BFF8E166
:1000A000F1BDE1BD8DE0A2E0BB27ED938A95E9F7B4
:1000B00080E094E0A0E6ED930197E9F7E2E8F0E054
:1000C00085919591009761F0A591B5910590159056
:1000D000BF01F00105900D920197E1F7FB01F0CF10
:1000E000EFE5EDBFE4E0EEBFC0E6D1E059C0E4EEDD
:1000F000E6BFE6B7E078E9F30895E4E9E6BF0895DE
:10010000AA93E881E3B9E4E8E6BFE6B7E078E9F36B
:10011000F4C1AA931A93A981A13011F4E4EC01C0AF
:10012000E4E8E6BFE6B7E078E9F313B1E12F188120
:1001300079C182D5A0E0E4DFA88182D5AA81E0DF81
:10014000DCDFB0C179D5A4E0DBDFAA8179D5A88155
:10015000D7DFD3DFA7C177D5A0E07AD5A881B98151
:100160007DD5AC81BD81EC93C8DFF9C06CD5A4E02E
:100170006FD5AC81BD8172D5A881B981EC93BDDF0B
:10018000EEC0AA931A93B3DFA0ED5AD5B0DFA1ED6C
:10019000B7DFA0E0BEDF1E2FB0DFE12F188142C124
:1001A000E0E0E8BBE7BBE5BBE4BBE2BBE1BBE3BF30
:1001B000E2BFEFBDEEBDEDBDECBDE7BDE6BDEBBD05
:1001C000EABDE9BDE8BDE2BDE5BDE4BDE3BDE5BF17
:1001D000E9BFEAB9E0E8E8B9E0E0E0BFE6B9EDB9C7
:1001E000E6BFAED6AE2EA0E15FD178943FD5EFE763
:1001F0007E225A924A92A72D9CDFAFE3C2DFE535FB
:1002000059F0E0E0EA93EA93A0E093DFE2E1EA93B9
:10021000E2E0EA93A1E196DFA6E3B0E033D126D590
:10022000E6E0F0E02ED5E9E0F0E02BD5A8E0B0E084
:100230009DDFE1E7F1E025D5EFE3F0E022D5E52D04
:1002400023D5E42D21D5E72D1FD58CE0E2D3609690
:10025000EBD0A1E7B1E009D1E1E7F1E012D5E4E5A7
:10026000F0E00FD5E62D10D5E92D0ED5E82D11D5EE
:10027000E053F84F86D803D98CE0CBD36096A1E742
:10028000B1E0F3D0E0E0EA15B8F4A0E004D569D01D
:1002900004D50CD5E0E0F0E06AE774E440D809F05A
:1002A00008F40AC003D5E0E0F0E060E875E44DD75B
:1002B000F4D405D5ABD6F1D4E9E6F1E0E2D4E6E634
:1002C000F0E0DFD4FCD4DBD884E0A3D32896E8E0C8
:1002D000EA93A0E09CD0A9E6B1E0C7D0A8E8B3E1DA
:1002E00025D69DCFFFCFF4D41A932AD6E03011F44F
:1002F000E0E0D7C0E981FA81309769F0A5E566D6DC
:1003000010E0E9D4ED91A983BA83AE2F5FD61F5FC9
:100310001830B8F302C0ACEC59D6E1E0C2C0D8D472
:10032000CBD8AC81BD81DFDFE03011F4E0E016C056
:10033000AEEB4CD610E020E631E03F932F932F5FD9
:100340003F4F3FD6AF91BF91EC931F5F1930A8F399
:10035000E0E6F1E096D4A9E043D618D8B4D82696C2
:100360000895B6D41A93B7D4DADFE03011F4B6D4D6
:1003700098C0E0916401E295EF70E695E3701E2F5E
:10038000AAD4B1DFE03011F4A9D48BC0A4E41ED606
:10039000E12FA6E2B0E0A7D460D8C8D59CD4BFDFD7
:1003A000E03011F49BD47DC0CBD5E12FAEE2B0E0BC
:1003B0009AD44FD8A0916001B0916101EA23FB2348
:1003C00098D4A0E0B0E080E89DE316D76AC0AA9375
:1003D000E2B3EF70AE2FE881E07FEA2BE2BB85E06D
:1003E0008A95F1F7929A8DE08A95F1F792988DE0CF
:1003F0008A95F1F782C0AA93A881E9DFE881E295A6
:10040000E883A881E4DF85E88A95F1F776C0AA93AE
:10041000E8813FD4EA57FE4FE081A981AE0FEBDFC0
:10042000D980C88022960895A2E066D4ACE0E3DFCC
:10043000A1E062D4E0E0CE2EDE2E0895AA93A8813A
:10044000AA3021F0E0918A01DE1648F0E0E0EA935C
:10045000C394AC2DDCDFA881AA3009F44EC0D3943C
:10046000909AA881C8DF909848C032D41A9333D4A8
:10047000ED91A983BA831E2FE03019F0A12FDEDFA2
:10048000F6CF0FC025D41A93E981FA813196E9831A
:10049000FA833197E4911E2FE03019F0A12FCEDFBF
:1004A000F3CF188123960895AA93E1B3E06FE1BBDF
:1004B0008A9A889A899A929890989198E881E0937C
:1004C0008A01E058E0938801E881E054E0938901D3
:1004D000A4E1E1D32BD514D413D412D4A0E277DF56
:1004E00088EC90E00197F1F7A8E285DFA4E083DFD4
:1004F000A5E881DFA6E07FDF97DF21960895E8D3A6
:10050000DDD705D412969BD73097F1F000D402D4F2
:100510008F01309761F00230E0E01E07A0F0F80193
:1005200031978F01AA81BB811496ED93FC93EFD391
:100530001296F3D33197AC81A083E9D380D7FF2300
:1005400012F0E5D3EAD305C0E2D3EFEFFFEFED936E
:10055000FC93BBD725960895E6D3E0E8EA83EFE362
:10056000EB83AAD7EE85FF85EF3FAFEFFA0739F4AB
:10057000E885F98586D3A0E7B0E075D27BC0EF3F70
:10058000AFE7FA0731F4D5D37CD3A1E7B0E06BD263
:1005900071C0AB85A73010F0E6E0EB871B85CCD3AC
:1005A00011F0CED3FCCFDAD381D719F430E0C8D321
:1005B0001BC03B85D8D309F008F407C0C1D3D3D3FF
:1005C00018F0DBD3DFD3FBCF08C0CDD328F4D5D3CD
:1005D000E4D3E9D33150F9CFB3D3C0D3E9D3E3D3D4
:1005E000C2D310F0CAD3CED310E0EB85E11710F1DF
:1005F000E5D3E9D3DDD3DF01CB0188D2EC83FD83E2
:100600006E837F83BAD346D634D50E2FE2D3E8D398
:10061000FF276627772766D5D1D3EED5AED339D756
:1006200094D5C1D3E12F1F5FE030F9F6D2D3EEE2CB
:10063000EC93DBCFDAD33197AA85A08330302CF44A
:100640003195A885B985EDE203C0A885B985EBE2AF
:10065000EC93CBD3CAD3CED3ACD6E05DDB01EC9325
:10066000C4D3C8D3D0D6E05DDB01EC93A885B985AF
:10067000E0E0EC9328D7609608952AD3EF9761972E
:1006800019D710E0FE01E85AFF4F0190F081E02DEC
:10069000E887F987FE01EA5AFF4F0190F081E02DCB
:1006A000EE83FF83ACD3E0E0F0E0ED93FC93DE015A
:1006B000A45ABF4F32D33197E4912E2FE03009F482
:1006C000A2C1E12FE03031F4253211F411E001C074
:1006D00099D398C1E130B9F4253211F493D391C183
:1006E00012E0E0E0ED8B00E02D3211F401E08AC170
:1006F0002B3219F4EBE2ED8B85C1203219F4E0E2E4
:10070000ED8B80C102C0E23039F450E013E02033B9
:1007100011F4006877C102C0E33091F4203310F087
:100720002A3308F007C0AAE05A9F502DE22FE05369
:100730005E0F68C140E02E3211F414E063C10FC0B7
:10074000E43099F4203310F02A3308F008C0006236
:10075000AAE04A9F402DE22FE0534E0F53C12C36A2
:1007600019F4026015E04EC103C0E53009F04AC13A
:10077000E22FE33639F44DD353D34BD3A481AA935C
:1007800056D33FC1E53411F0E53609F402C0E63630
:1007900099F553D357D357D65CD360D3AD85AA23ED
:1007A00022F0AD89AB3231F012C05AD32FD451D3DD
:1007B000EDE2ED8B07FF04C0ED89EA9338D307C063
:1007C000EE85FF85319651D33197AD89A08305FF22
:1007D00046E0263639F444D352D64A93AB89BC89D5
:1007E000A5D107C03DD34BD64A932A93AC89BD8986
:1007F000B3DE23D33DD318C0E33729F42FD33DD341
:1008000034D336D30AC0E037A1F428D336D32DD35E
:10081000AE85BF853FD11E2F08600F77403011F0A5
:10082000411708F001C0142F40E0E0E0EC8B30E00D
:100830005EC0E43611F0E93611F4046002C0E53719
:1008400091F4EAE0EC8B01FF07C0E0E0FAEC6AE922
:100850007BE315D31AE01FC0E0E1F7E260E070E04F
:100860000ED315E018C0E83511F4086003C0E8376E
:1008700009F0C7C0E0E1EC8B01FF07C0E0E0F0E069
:1008800060E070E1FCD218E006C0E0E0F0E160E07A
:1008900070E0F5D214E0403011F00F7701C041E074
:1008A00001FF05C0DBD2CED21496CDD50AC002FF1F
:1008B00004C0D4D2E2D265D504C0D0D2DED266273D
:1008C0007727EA87FB876C877D8702FF0FC0AD859E
:1008D000AA232AF4C5D247D5BCD2EDE2ED8BED892F
:1008E000E03019F01F5F4F5F01C00B7F342F00FD18
:1008F00013C0151710F4351708F00EC007FF08C015
:1009000002FF04C00B7F2D89115001C020E301C0FC
:1009100020E278D25150EDCF141780F4006102FF2D
:1009200005C0B2D209F0515011504150E0E3EA93B2
:100930007ED2503009F051504150EECF312FEC892A
:10094000E030A9F4303091F003FF05C0EE85FF855B
:1009500025918BD205C0AE85BF852D91AE87BF870F
:1009600051D2503009F051503150ECCF41C09ED29D
:1009700025D52E2F2A3030F003FF02C0295C01C09C
:10098000295A01C0205D04FD1DC0213348F497D2CF
:10099000A130E0E0BE07E0E08E07E0E09E0709F44A
:1009A0000BC0431740F4531710F000FF01C00EC0F6
:1009B00020E207FF07C020E3006102FF03C064D20A
:1009C00009F051501FD2503009F0515031506ED2C1
:1009D00026D53FD2EC8973D2FF2766277727EED43E
:1009E0004ED2E889F9896A897B8960D509F0BFCF41
:1009F00000FF07C0503029F05150E0E2EA9317D2CF
:100A0000F9CF10E054CEFBD11AD55BD5EF966F9697
:100A10000895FF92F82E26974FD556D2309719F4A5
:100A2000EFEFFFEF1CC0DE01169699D48D014CD27A
:100A3000EE83FF83E0E0E887E987DE011A968FD432
:100A4000FED41FD11A930A93EFE7F2E01AD1DE0128
:100A50001A9613DE9F01D3D1E0E0EC93F90133D570
:100A60002A96FF90089534D1E991F991A991B9910D
:100A7000CD0105900D920020E1F7FC01089528D1E9
:100A8000A991B991EE27FF276D91662311F0319658
:100A9000FBCF08951DD1AA27BB27E991F9910590B5
:100AA000002011F01196FBCFFD010895EDD47B815C
:100AB0006A81F981E88177FB770F67FD7160972F75
:100AC0009E5781F078F0983190F4AA27BB278827A9
:100AD00008948795B795A7959A95D1F7EA23FB23B4
:100AE000682305C0E8947727EE27FF2766276F77EE
:100AF000769508F4606877F9A991B99189919991EF
:100B0000EA17FB076807790797FB0895BDD4ADD4B2
:100B1000CDDFB0D411F4DDD107C0EEF7DAD1A0E01B
:100B2000B0E080E89FE311D324960895FCD0E0E084
:100B3000EA83EFE3EB83C2D4EB85FC85EF3FAFEFB5
:100B4000FA0729F4C8D1A8E7B0E08DDF72C0EF3F03
:100B5000AFE7FA0729F4BFD1A9E7B0E084DF69C0A5
:100B6000AC85AA2332F4BAD151D2BDD1C1D1EDE2C4
:100B7000EC93A885A73010F0E6E0E8871885DCD074
:100B800021F0BCD120D1BFD1FACFC2D1E5D2ABD1B7
:100B900010E0E0E0F0E060E87FE3B5D1B9D1BFD389
:100BA00060F0ACD1FAD0AFD11F5F173228F093D1EB
:100BB000ADE7B0E058DF3DC0F1CF103021F498D15F
:100BC000E0E3EC9318C0B8D0B1F098D1FCD0F0D0ED
:100BD000DF01CB019BDF97D19BD15CD34AD20E2F93
:100BE00087D1FED056D08AD184D006D39AD151D4A1
:100BF000ACD279D1E8CFE885E030B9F079D1EEE236
:100C0000EC93E885E150E887EF5F79F08AD1C5D0B1
:100C10006AD164D12ED20E2F6BD1E2D03AD081D1DD
:100C200068D037D492D25FD1ECCFAE81BF81E0E003
:100C3000EC934BD42D960895AA9359DAA0ED60CA8F
:100C40005FDAA9815DCABA93AA9351DAA0ED58CAB6
:100C500057DA4DDAA1ED54DAA1E05BCAEC93A1E0DA
:100C600058DAAA81BB81EC93A0E053CAE5E0F0E03A
:100C7000FA93EA93E4E0F0E0FA93EA93A7E0B0E0B5
:100C80006ACAFA93EA930895FF2766277727F7D36E
:100C90000895F0E00895B0E00895E0938201F093A4
:100CA000830160938401709385010895A09182016E
:100CB000B091830180918401909185010895E09124
:100CC0008201F09183016091840170918501089502
:100CD000BA93AA930895A981BA810895E0E0FCE34C
:100CE0006CE176EC0895D5DFEE0FFF1FEA0FFB1FD6
:100CF000089547D3F7D108957EDBA3E0CCDF16C17A
:100D0000A0E365DB88EC90E00197F1F70895AA81F4
:100D1000BB810895149693D30895ED91FD9131967A
:100D2000FE93EE930895D4DF2497E0E0E883E9830F
:100D30000895E885F9850895E12F1150E030089570
:100D4000AC81BD818E819F81E0E0F0E060E271E4E2
:100D500053D2EC83FD836E837F830895EC85FD85FC
:100D60006E857F850895EC81FD816E817F81AC85E4
:100D7000BD858E859F85D3D20895AC85BD858E8532
:100D80009F850895EDECFCEC6CEC7DE335D2EC87AF
:100D9000FD876E877F873F5F0895E0E0F0E060E2C7
:100DA00071E42AD20895EC87FD876E877F870895C6
:100DB000A0E0B0E080E09FE3CFD10895AC81BD8199
:100DC0008E819F810895EDECFCEC6CEC7DE314D2F8
:100DD0000895A885B9851196A887B98711970895B0
:100DE000E02FE05DEC93E02F0895A3DF3196E887D4
:100DF000F98708953197BF01A32FEAE00895AE81E6
:100E0000BF8108952A93AF81B885E985FA85099550
:100E10000895FE01E65AFF4F0190F081E02D0895FC
:100E20003497DE01A65ABF4FED93FC930895AF812E
:100E3000B885E985FA8509950895FE017696EE87CD
:100E4000FF870895DE01A65ABF4F0D90BC91A02DDB
:100E50000895EA87FB876C877D870895DADFE0CF06
:100E6000EA85FB856C857D850895EE87FF8708956B
:100E7000AE85BF8504DE1E2F0895E4DF4BCFE88BDF
:100E8000F98B6A8B7B8B08950B7FED89EA93DE01EA
:100E9000A95ABF4F0D90BC91A02DFE01E75AFF4FFC
:100EA0000190F081E02D099550300895E889F98985
:100EB0006A897B89AA85BB858C859D850895A889CB
:100EC000B9898A899B890895DE011C9648D2B7D2D8
:100ED0000895C6D20895EE81FF81D3CEE985FA85C3
:100EE0006B857C850895E987FA876B877C870895F1
:100EF00086DF1196AE83BF8311970895AA81BB81C7
:100F00008C819D810895EA83FB836C837D830895A2
:100F1000EA81FB816C817D81A985BA858B859C8561
:100F20000895A985BA858B859C850895109639F01A
:100F300080ED97E00197F1F7A8951197C9F708950B
:100F4000EE27A898A09A80EC93E00197F1F7A0987B
:100F500085E28A95F1F7989B08958BEC8A95F1F7D5
:100F6000989BE1E08CE093E00197F1F70895A09A57
:100F700085E08A95F1F7A0988DE18A95F1F788943C
:100F800098990894E79585ED8A95F1F70895E89486
:100F9000A09A85E08A95F1F770FDA09883E28A9582
:100FA000F1F7989903C070FF03C0089570FF08958A
:100FB00088EC8A95F1F7A0988DE08A95F1F768940E
:100FC000089568E0D4DF6A95E9F708957A2F68E01C
:100FD000EE27DDDF26F477956A95D9F7E395089536
:100FE000EE27AA2389F08A2F68E1A881B98198E0C9
:100FF000FD917F2F7E27779508F4E627E795F695F4
:101000009A95B9F78A9599F7229608953097604096
:10101000704009F070580895552342F4503811F487
:10102000E0FF04C03196691F791F6BF050E8572725
:1010300011F45F93CFC05F3F31F0660F000C5795FE
:101040006795752F08955F9300200AF0CFC0C8C040
:1010500050E8192E1522880F991F9527550F87954F
:1010600050E8072E0522660F771F7527550F6795E5
:101070000895689401C0E8945F93F2DF703818F027
:101080007F3F08F4A7C056E1571BAAF4519558308A
:101090000EF4593030F0EFEFFFEF6FEF7FE777F9A5
:1010A0001AC077275523B9F0EE0FFF1F661F771F71
:1010B0005A95D1F710C07727583028F0EF2FF62F28
:1010C000672F5850F9CF552331F076956795F795EE
:1010D000E7955A95D1F700200AF445D15F9108951C
:1010E000689401C0E894309760407040B1F00024EB
:1010F00026F0772312F4009436D1172E7EE11120CA
:1011000032F07A95EE0FFF1F661F111CF9CFEF2FFB
:10111000F62F612D5F938ADF5F9108954F93AF01A2
:10112000FD01DA01AB01BC01CA01402D012C142ED6
:101130004F910895EA0FFB1F681F0895E095F09501
:101140006095EF5FFF4F6F4F08955F9381DF903899
:1011500071F150E8152604C05F937ADF903839F1B9
:10116000703821F1572F591B2BF112F4D7DFFACF2A
:10117000583118F0AA27BB278827583028F0AB2F02
:10118000B82F88275850F9CF552329F08695B79561
:10119000A7955A95D9F7502D512572F0CBDF38F429
:1011A0006795F795E795739513F420C0B7DF3EDF99
:1011B0005F910895D8F7FBCFEA1BFB0B680B51F04A
:1011C00010F40094BBDF662392F3EE0FFF1F661F3F
:1011D0007A95CBF7EE27FF27662777275F9108954B
:1011E000EFEFFFEF6FE77FEF5F910895EFEFFFEF16
:1011F0006FE77FE75F9108955F932ADF703851F3BF
:10120000903841F301240894791F23F41CF3002043
:101210003AF3ECCF0F921F932F933F934F931127E5
:1012200022279927689FA0018F9F302D410D591FBC
:101230006B9F300D411D591F8E9F27D0BF9F25D01A
:101240006A9F23D0BE9F1DD0AF9F1BD0AE9F110DB4
:10125000291F391F491F591FE32FF42F652F522FC4
:101260004F913F912F911F910F9066232AF0550FB8
:10127000EE1FFF1F661F02C073954BF2CDDE5F911C
:101280000895100D211D391F02C0200D311D491F69
:10129000591F08955F93DCDE703821F411200AF4A1
:1012A0009FCFA4CF903809F495CF01240894970BD1
:1012B0001BF4D4F30020F3CF792F1F932F933F9388
:1012C0004F9311241127222733274427552790E2D3
:1012D000AE17BF078607410730F0AE1BBF0B860B6A
:1012E000410B089401C08894551F221F331F111C05
:1012F000AA1FBB1F881F441F9A9551F7F901612D42
:101300004F913F912F911F91662332F0550FEE1FA1
:10131000FF1F661F7A9543F27FDE5F910895992340
:101320009AF0772342F0971748F029F4AE17BF07D9
:10133000860720F031F09894889408959894089442
:1013400008951894889408957723C2F7971798F30F
:10135000A9F7EA17FB07680788F399F3ECCF002495
:10136000AF0DB01D0895F09560957095E195FF4F14
:101370006F4F7F4F0895FE2FFF0FFF0B6F2F7F2FB3
:1013800008956F2F660F660B762F0895EE23E1E028
:1013900009F0EE270895002498E0AA0F001C0E1A09
:1013A00010F40E0E01C0A1609A95B9F7EA2FA02D96
:1013B000089539D0F0DF0EF4E19508953F934F93EF
:1013C0005F93002411244427552730E2AA0FBB1F46
:1013D000881F991F001C111C441F551F0E1A1F0A3D
:1013E000460B570B28F40E0E1F1E461F571F01C039
:1013F000A1603A9559F7FD01BC01D001CA015F9186
:101400004F913F910895E894A7FF02C0A195689479
:10141000E7FDE195C0DFEA2F0EF4E1950895CEDFF8
:10142000FD01BC010895E894E7FF02C0E1956894CE
:10143000A7FF04C0A19500F8039400FA0895ED9168
:10144000FC9111970895ED91FD916D917C91139709
:1014500008950590F491E02D0895A591B491089513
:10146000E881F9816A817B810895A881B9818A81A7
:101470009B810895E883F9836A837B8308957A9337
:101480006A93FA93EA9308959A938A93BA93AA93E4
:101490000895182E862F612D192E972F712D1B2E32
:1014A000BF2FF12D1A2EAE2FE12D089530976040F9
:1014B000704008955A934A933A932A931A930A9341
:1014C00008955D814C813B812A81198108810895AD
:00000001FF
